:1000000022C0189518951895189518951895189553
:100010001895189518951895189518951895189578
:100020001895189518951895189518951895189568
:100030001895189518951895189518951895189558
:10004000189518951895B0E0AEE500E10C93B0E076
:10005000ADE50FEF0C93B1E1A0E000E020E030E16E
:10006000A150B0400C93215030402223C9F73323D4
:10007000B9F7B0E0A8E900E00C93B0E0A9E907E621
:100080000C93B0E0AAE908E10C93B0E0AAE300E029
:100090000C93B0E0ABE300E00C93B0E0A7E300E822
:1000A0000C93B0E0A8E300E00C93B0E0A4E300E020
:1000B0000C93B0E0A5E300E00C93B0E0A1E308E00E
:1000C0000C93B0E0A2E300E00C93B0E0A2E200E009
:1000D0000C93B0E0A3E201E00C93B0E0A1E600E0F5
:1000E0000C93B0E0A2E600E00C93B0E0A4E600E0E0
:1000F0000C93B0E0A5E600E00C93B0E0AFE400E0C4
:100100000C93B0E0AEE409E00C93B0E0ABE40CE992
:100110000C93B0E0AAE40EE30C93B0E0A7E500E195
:100120000C93B0E0A6E50C9104FFFBCFB0E0A6E590
:100130000C9100610C93A895B1E0A1E00C910260D4
:100140000C93B1E0A1E00C91B1E0A1E01C9101FFA2
:100150001B7F01FD14601C93B1E0A1E00C9102FF34
:10016000EFC0B1E0A1E00C9103FD60C0B1E0A1E0FF
:100170000C910F7E0C93B0E0ACE30C9101FD23C019
:10018000B1E0A1E00C9100FF23C0B0E0AEE30C9120
:10019000B0E0AFE31C91039509F413951C93B0E014
:1001A000AEE30C93B1E0A0E00C91B0E0ADE30C93B2
:1001B000B0E0ACE304E00C9306E00C93B1E0A1E006
:1001C0000C910E7F0C93B1E0A1E00C9100610C93B7
:1001D000B1E0A1E00C9104FD29C0B1E0A1E00C91D7
:1001E00008600C93B0E0AFE300E00C93B0E0AEE346
:1001F00000E00C93B0E0ACE301E00C93B0E0ADE3C1
:100200000C91B1E0A2E00C93B0E0AFE300E00C93FE
:10021000B0E0AEE301E00C93B0E0ACE301E00C939E
:10022000B0E0ADE30C91B1E0A3E00C93B1E0A1E04C
:100230000C910F7E0C93B0E0ACE30C9101FD23C058
:10024000B1E0A1E00C9100FF23C0B0E0AEE30C915F
:10025000B0E0AFE31C91039509F413951C93B0E053
:10026000AEE30C93B1E0A0E00C91B0E0ADE30C93F1
:10027000B0E0ACE304E00C9306E00C93B1E0A1E045
:100280000C910E7F0C93B1E0A1E00C9100610C93F6
:10029000B1E0A1E00C9104FD53C0B0E0AFE300E099
:1002A0000C93B0E0AEE300E00C93B0E0ACE301E00F
:1002B0000C93B0E0ADE30C91B1E0A4E00C93B0E09E
:1002C000AFE300E00C93B0E0AEE301E00C93B0E0EC
:1002D000ACE301E00C93B0E0ADE30C91B1E0A5E03C
:1002E0000C93B1E0A4E00C91B1E0A5E01C91B1E069
:1002F000A2E02C91B1E0A3E03C910217130709F4AE
:100300001FC0B1E0A1E00C9101600C93B1E0A3E04B
:100310000C91B1E0A0E00C93B0E0AFE300E00C93EF
:10032000B0E0AEE300E00C93B1E0A2E00C91B0E0ED
:10033000ADE30C93B0E0ACE304E00C9306E00C9367
:10034000B1E0A1E00C91B1E0A1E01C9101FF1B7FA5
:1003500001FD14601C93B1E0A1E00C9102FF1DC0EF
:10036000B0E0A7E200E00C93B0E0A6E205E80C9351
:10037000B0E0A6E205EC0C93B0E0A6E20C9106FD1D
:10038000FBCFB0E0A4E20C91B1E0A6E00C93B0E0AA
:10039000A5E20C91B1E0A7E00C93B1E0A1E00C91D3
:1003A000B1E0A1E01C9101FF1B7F01FD14601C93D3
:1003B000B1E0A1E00C910F7D0C93B1E0A1E00C91B4
:1003C000B1E0A1E01C9102FF1F7B02FD10641C93B1
:1003D000B0E0A1E20C9100FD05C0B1E0A1E00C91FC
:1003E0000F7B0C93B1E0A1E00C9106FF05C0B1E0DA
:1003F000A1E00C9100620C93B1E0A1E00C91B1E09E
:10040000A1E01C9102FF1F7B02FD10641C93B1E070
:10041000A8E000E00C93B1E0A9E002E00C93B1E0A9
:10042000A8E00C91B1E0A9E01C91B1E0A6E02C910C
:10043000B1E0A7E03C91201731072CF4B1E0A1E036
:100440000C910F7B0C93B1E0A1E00C9106FF05C06D
:10045000B1E0A1E00C9100620C93B1E0A1E00C913D
:10046000B1E0A1E01C9105FF1B7F05FD14601C930A
:10047000B1E0A1E00C91B1E0A1E01C9102FF1F7E70
:1004800002FD10611C93B1E0A1E00C9107FF05C0D3
:10049000B1E0A1E00C910B7F0C93B1E0A1E00C91D5
:1004A000B1E0A1E01C9104FF1F7704FD10681C93CC
:1004B000B1E0A1E00C9102FF1CC0B1E0A8E001E0B6
:1004C0000C93B1E0A9E000E00C93B1E0A2E02C9124
:1004D000B1E0A3E03C91B1E0A8E00C91B1E0A9E06B
:1004E0001C91200F311FB1E0A2E02C93B1E0A3E0FA
:1004F0003C93B1E0A1E00C91B1E0A1E01C9101FFBF
:100500001B7F01FD14601C93B1E0AAE00C910E7FEB
:100510000C93B1E0A1E00C91B1E0AAE01C9102FFC4
:100520001D7F02FD12601C93B1E0A8E00AE00C936D
:10053000B1E0A9E000E00C93B1E0A8E00C91B1E0DB
:10054000A9E01C91B1E0A2E02C91B1E0A3E03C91C4
:10055000201731070CF405C0B1E0AAE00C910D7F23
:100560000C93B1E0AAE00C9101FF08C0B1E0ABE050
:1005700004E10C93B1E0ACE000E00C93B1E0AAE040
:100580000C9101FF05C0B1E0AAE00C9101600C9351
:10059000B1E0A1E00C91B1E0AAE01C9102FF1D7F47
:1005A00002FD12601C93B1E0A8E00AE00C93B1E0F8
:1005B000A9E000E00C93B1E0A8E00C91B1E0A9E063
:1005C0001C91B1E0A2E02C91B1E0A3E03C91201796
:1005D00031072CF4B1E0AAE00C910D7F0C93B1E04F
:1005E000AAE00C9101FF08C0B1E0ABE002E30C937C
:1005F000B1E0ACE000E00C93B1E0AAE00C9101FFA7
:1006000005C0B1E0AAE00C9101600C93B1E0A1E05B
:100610000C91B1E0AAE01C9102FF1D7F02FD126067
:100620001C93B1E0AAE00C9101FF21C0B1E0ABE066
:100630000C9110E030E02FEFEAE0FAE00995132F7B
:10064000022F30E024E6EBE1FAE00995B0E0A3E404
:100650000C93B1E0AAE00C9102FD09C0B1E0AAE060
:100660000C9104600C93B0E0A5E40AE60C93B1E0B1
:10067000AAE00C9101FF05C0B1E0AAE00C91016075
:100680000C93B1E0AAE00C91B1E0A1E01C9100FF55
:100690001B7F00FD14601C93B1E0A1E00C91B1E060
:1006A000A1E01C9101FF1B7F01FD14601C93B1E0D0
:1006B000A1E00C9102FF1EC0B1E0ADE00C91B1E0F1
:1006C000AEE01C9123E630E00217130794F4B1E08A
:1006D000ADE00C91B1E0AEE01C91039509F41395E7
:1006E0001C93B1E0ADE00C93B1E0A1E00C910B7F65
:1006F0000C9308C0B1E0ADE000E00C93B1E0AEE0D7
:1007000000E00C93B1E0A1E00C91B1E0A1E01C91FC
:1007100002FF1F7E02FD10611C93B1E0AAE00C9164
:1007200003FF05C0B1E0A1E00C910B7F0C93B1E099
:10073000A1E00C91B1E0AAE01C9104FF177F04FD39
:1007400018601C93B1E0A1E00C9102FF0DC0B1E074
:10075000AAE00C9104FD08C0B1E0AFE000E00C930A
:10076000B1E0A0E100E00C93B1E0A1E00C91B1E0B8
:10077000AAE01C9102FF1F7E02FD10611C93B1E0F4
:10078000AFE00C91B1E0A1E10C93B1E0A0E10C91DC
:10079000B1E0A2E10C93B1E0AFE00C91B1E0A0E1D7
:1007A0001C9120E130E0021713070CF408C0B1E0FF
:1007B000A1E10FEF0C93B1E0A2E10FEF0C93B1E0D8
:1007C000A1E00C910F7E0C93B1E0A1E00C9104FF2D
:1007D00006C0B1E0A4E00C91B0E0ACE90C93B1E04C
:1007E000A1E00C910F7E0C93B0E0ABE90C9105FDFC
:1007F00005C0B1E0A1E00C9100610C93B1E0A1E073
:100800000C9104FF08C0B1E0A1E10FEF0C93B1E03F
:10081000A2E10FEF0C93B1E0A4E000E00C93B1E093
:10082000A5E000E00C93B1E0A4E00C91B1E0A5E0FC
:100830001C91B1E0A1E12C91B1E0A2E13C91021741
:10084000130741F4B1E0A8E003E70C93B1E0A9E09D
:1008500000E00C93B1E0A4E001E00C93B1E0A5E06E
:1008600000E00C93B1E0A4E00C91B1E0A5E01C9194
:10087000B1E0A1E12C91B1E0A2E13C910217130794
:1008800041F4B1E0A8E001E60C93B1E0A9E000E09A
:100890000C93B1E0A4E002E00C93B1E0A5E000E02D
:1008A0000C93B1E0A4E00C91B1E0A5E01C91B1E0A3
:1008B000A1E12C91B1E0A2E13C910217130741F4B0
:1008C000B1E0A8E006E70C93B1E0A9E000E00C93EA
:1008D000B1E0A4E003E00C93B1E0A5E000E00C93EC
:1008E000B1E0A4E00C91B1E0A5E01C91B1E0A1E180
:1008F0002C91B1E0A2E13C910217130741F4B1E061
:10090000A8E005E60C93B1E0A9E000E00C93B1E0AB
:10091000A4E004E00C93B1E0A5E000E00C93B1E0AA
:10092000A4E00C91B1E0A5E01C91B1E0A1E12C9113
:10093000B1E0A2E13C910217130741F4B1E0A8E055
:1009400004E60C93B1E0A9E000E00C93B1E0A4E070
:1009500005E00C93B1E0A5E000E00C93B1E0A4E069
:100960000C91B1E0A5E01C91B1E0A1E12C91B1E0C6
:10097000A2E13C910217130741F4B1E0A8E000E2C4
:100980000C93B1E0A9E000E00C93B1E0A4E006E034
:100990000C93B1E0A5E000E00C93B1E0A4E00C9171
:1009A000B1E0A5E01C91B1E0A1E12C91B1E0A2E1A0
:1009B0003C910217130741F4B1E0A8E00DE30C935A
:1009C000B1E0A9E000E00C93B1E0A4E007E00C93F3
:1009D000B1E0A5E000E00C93B1E0A4E00C91B1E03F
:1009E000A5E01C91B1E0A1E12C91B1E0A2E13C9124
:1009F0000217130741F4B1E0A8E000E20C93B1E064
:100A0000A9E000E00C93B1E0A4E008E00C93B1E0B1
:100A1000A5E000E00C93B1E0A1E00C910F7E0C93F7
:100A2000B1E0A4E00C91B1E0A5E01C91B1E0A1E13E
:100A30002C91B1E0A2E13C910217130729F4B1E037
:100A4000A1E00C9100610C93B1E0A1E00C9104FFD6
:100A500043C0B1E0A2E00C91B1E0A3E10C93B1E09E
:100A6000A3E00C91B1E0A4E10C93B1E0A8E000E2B6
:100A70000C93B1E0A9E000E00C93B1E0A2E00C918E
:100A8000B1E0A3E01C9120E030E00217130724F549
:100A9000B1E0A8E00DE20C93B1E0A9E000E00C9316
:100AA000B1E0A4E000E00C93B1E0A5E000E00C931D
:100AB000B1E0A4E02C91B1E0A5E03C91B1E0A2E06E
:100AC0000C91B1E0A3E01C91201B310BB1E0A3E13C
:100AD0002C93B1E0A4E13C93B1E0A4E009E00C93D5
:100AE000B1E0A5E000E00C93B1E0A1E00C910F7E35
:100AF0000C93B1E0A4E00C91B1E0A5E01C91B1E051
:100B0000A1E12C91B1E0A2E13C910217130729F475
:100B1000B1E0A1E00C9100610C93B1E0A1E00C9177
:100B200004FF89C0B1E0AAE00C9100620C93B1E02F
:100B3000A4E000E10C93B1E0A5E007E20C93B1E082
:100B4000A4E02C91B1E0A5E03C91B1E0A3E10C91CF
:100B5000B1E0A4E11C91EBE1FAE00995B1E0A8E075
:100B60000C93B1E0A9E01C93B1E0A4E02C91B1E0BA
:100B7000A5E03C91B1E0A8E00C91B1E0A9E01C91A6
:100B8000EAE0FAE00995B1E0A4E02C93B1E0A5E039
:100B90003C93B1E0A3E12C91B1E0A4E13C91B1E040
:100BA000A4E00C91B1E0A5E01C91201B310BB1E059
:100BB000A3E12C93B1E0A4E13C93B1E0A4E000E315
:100BC0000C93B1E0A5E000E00C93B1E0A8E02C911B
:100BD000B1E0A9E03C91B1E0A4E00C91B1E0A5E066
:100BE0001C91200F311FB1E0A8E02C93B1E0A9E0E7
:100BF0003C93B1E0A4E00C91B1E0A5E01C91B1E020
:100C0000A8E02C91B1E0A9E03C910217130771F420
:100C1000B1E0AAE00C9105FF08C0B1E0A8E000E255
:100C20000C93B1E0A9E000E00C9305C0B1E0AAE0AC
:100C30000C910F7D0C93B1E0A4E00AE00C93B1E0BD
:100C4000A5E000E00C93B1E0A1E00C910F7E0C93C5
:100C5000B1E0A4E00C91B1E0A5E01C91B1E0A1E10C
:100C60002C91B1E0A2E13C910217130729F4B1E005
:100C7000A1E00C9100610C93B1E0A1E00C9104FFA4
:100C800084C0B1E0A4E008EE0C93B1E0A5E003E07D
:100C90000C93B1E0A4E02C91B1E0A5E03C91B1E06F
:100CA000A3E10C91B1E0A4E11C91EBE1FAE009951C
:100CB000B1E0A8E00C93B1E0A9E01C93B1E0A4E09E
:100CC0002C91B1E0A5E03C91B1E0A8E00C91B1E03D
:100CD000A9E01C91EAE0FAE00995B1E0A4E02C93C8
:100CE000B1E0A5E03C93B1E0A3E12C91B1E0A4E137
:100CF0003C91B1E0A4E00C91B1E0A5E01C91201B77
:100D0000310BB1E0A3E12C93B1E0A4E13C93B1E05D
:100D1000A4E000E30C93B1E0A5E000E00C93B1E0A7
:100D2000A8E02C91B1E0A9E03C91B1E0A4E00C91E5
:100D3000B1E0A5E01C91200F311FB1E0A8E02C9399
:100D4000B1E0A9E03C93B1E0A4E00C91B1E0A5E0F2
:100D50001C91B1E0A8E02C91B1E0A9E03C91021710
:100D6000130771F4B1E0AAE00C9105FF08C0B1E0EF
:100D7000A8E000E20C93B1E0A9E000E00C9305C00C
:100D8000B1E0AAE00C910F7D0C93B1E0A4E00BE080
:100D90000C93B1E0A5E000E00C93B1E0A1E00C9170
:100DA0000F7E0C93B1E0A4E00C91B1E0A5E01C91A2
:100DB000B1E0A1E12C91B1E0A2E13C91021713074F
:100DC00029F4B1E0A1E00C9100610C93B1E0A1E045
:100DD0000C9104FF84C0B1E0A4E004E60C93B1E000
:100DE000A5E000E00C93B1E0A4E02C91B1E0A5E017
:100DF0003C91B1E0A3E10C91B1E0A4E11C91EBE1E5
:100E0000FAE00995B1E0A8E00C93B1E0A9E01C93E9
:100E1000B1E0A4E02C91B1E0A5E03C91B1E0A8E004
:100E20000C91B1E0A9E01C91EAE0FAE00995B1E08B
:100E3000A4E02C93B1E0A5E03C93B1E0A3E12C91B8
:100E4000B1E0A4E13C91B1E0A4E00C91B1E0A5E0F7
:100E50001C91201B310BB1E0A3E12C93B1E0A4E184
:100E60003C93B1E0A4E000E30C93B1E0A5E000E026
:100E70000C93B1E0A8E02C91B1E0A9E03C91B1E085
:100E8000A4E00C91B1E0A5E01C91200F311FB1E06E
:100E9000A8E02C93B1E0A9E03C93B1E0A4E00C9170
:100EA000B1E0A5E01C91B1E0A8E02C91B1E0A9E08F
:100EB0003C910217130771F4B1E0AAE00C9105FF11
:100EC00008C0B1E0A8E000E20C93B1E0A9E000E0C6
:100ED0000C9305C0B1E0AAE00C910F7D0C93B1E03A
:100EE000A4E00CE00C93B1E0A5E000E00C93B1E0CD
:100EF000A1E00C910F7E0C93B1E0A4E00C91B1E065
:100F0000A5E01C91B1E0A1E12C91B1E0A2E13C91FE
:100F10000217130729F4B1E0A1E00C9100610C93D2
:100F2000B1E0A1E00C9104FF84C0B1E0A4E00AE0CC
:100F30000C93B1E0A5E000E00C93B1E0A4E02C91AB
:100F4000B1E0A5E03C91B1E0A3E10C91B1E0A4E1F6
:100F50001C91EBE1FAE00995B1E0A8E00C93B1E057
:100F6000A9E01C93B1E0A4E02C91B1E0A5E03C9194
:100F7000B1E0A8E00C91B1E0A9E01C91EAE0FAE050
:100F80000995B1E0A4E02C93B1E0A5E03C93B1E079
:100F9000A3E12C91B1E0A4E13C91B1E0A4E00C917B
:100FA000B1E0A5E01C91201B310BB1E0A3E12C9333
:100FB000B1E0A4E13C93B1E0A4E000E30C93B1E024
:100FC000A5E000E00C93B1E0A8E02C91B1E0A9E02D
:100FD0003C91B1E0A4E00C91B1E0A5E01C91200FA0
:100FE000311FB1E0A8E02C93B1E0A9E03C93B1E05F
:100FF000A4E00C91B1E0A5E01C91B1E0A8E02C9137
:10100000B1E0A9E03C910217130771F4B1E0AAE046
:101010000C9105FF08C0B1E0A8E000E20C93B1E03C
:10102000A9E000E00C9305C0B1E0AAE00C910F7DAF
:101030000C93B1E0A4E00DE00C93B1E0A5E000E07A
:101040000C93B1E0A1E00C910F7E0C93B1E0A4E011
:101050000C91B1E0A5E01C91B1E0A1E12C91B1E0CF
:10106000A2E13C910217130729F4B1E0A1E00C9131
:1010700000610C93B1E0A1E00C9104FF62C0B1E00B
:10108000A4E001E00C93B1E0A5E000E00C93B1E036
:10109000A4E02C91B1E0A5E03C91B1E0A3E10C917A
:1010A000B1E0A4E11C91EBE1FAE00995B1E0A8E020
:1010B0000C93B1E0A9E01C93B1E0A4E02C91B1E065
:1010C000A5E03C91B1E0A8E00C91B1E0A9E01C9151
:1010D000EAE0FAE00995B1E0A4E02C93B1E0A5E0E4
:1010E0003C93B1E0A3E12C91B1E0A4E13C91B1E0EB
:1010F000A4E00C91B1E0A5E01C91201B310BB1E004
:10110000A3E12C93B1E0A4E13C93B1E0A4E000E3BF
:101110000C93B1E0A5E000E00C93B1E0A8E02C91C5
:10112000B1E0A9E03C91B1E0A4E00C91B1E0A5E010
:101130001C91200F311FB1E0A8E02C93B1E0A9E091
:101140003C93B1E0A4E00EE00C93B1E0A5E000E038
:101150000C93B1E0A4E00C91B1E0A5E01C91B1E0EA
:10116000A1E12C91B1E0A2E13C910217130741F4F7
:10117000B1E0A8E00DE00C93B1E0A9E000E00C9331
:10118000B1E0A4E00FE00C93B1E0A5E000E00C9327
:10119000B1E0A4E00C91B1E0A5E01C91B1E0A1E1C7
:1011A0002C91B1E0A2E13C910217130741F4B1E0A8
:1011B000A8E00AE00C93B1E0A9E000E00C93B1E0F4
:1011C000A1E10C91B1E0A2E11C9120E030E0021716
:1011D00013070CF42CC0B1E0A1E00C9100610C935A
:1011E000B1E0A1E00C9104FF06C0B1E0A8E00C91D1
:1011F000B0E0ACE90C93B1E0A1E00C910F7E0C9350
:10120000B0E0ABE90C9105FD05C0B1E0A1E00C91A7
:1012100000610C93B1E0AFE00C91B1E0A0E11C9152
:10122000039509F413951C93B1E0AFE00C93B1E082
:10123000A1E00C910B7F0C93B1E0AFE00C91B1E019
:10124000A0E11C9120E130E0021713072CF4B1E07B
:10125000A1E00C9104600C93B1E0A1E00C91B1E02D
:10126000A1E01C9101FF1B7F01FD14601C93B1E004
:10127000A1E00C9102FF08C0B1E0A5E108E70C93E2
:10128000B1E0A6E100E00C93B1E0A1E00C91B1E087
:10129000A1E01C9101FF1B7F01FD14601C93B1E0D4
:1012A000A1E00C9102FF1EC0B1E0A7E10C91B1E0FA
:1012B000A8E11C9127EC30E00217130794F4B1E089
:1012C000A7E10C91B1E0A8E11C91039509F41395F5
:1012D0001C93B1E0A7E10C93B1E0A1E00C910B7F6E
:1012E0000C9308C0B1E0A7E100E00C93B1E0A8E1E5
:1012F00000E00C93B1E0A1E00C91B1E0A1E01C9101
:1013000002FF1F7E02FD10611C93B1E0AAE00C9168
:1013100006FF05C0B1E0A1E00C910B7F0C93B1E09A
:10132000A1E00C91B1E0AAE01C9104FF1F7B04FD39
:1013300010641C93B1E0A1E00C9102FF06C0B1E083
:10134000A5E10C91B0E0ACE90C93B1E0A1E00C9107
:101350000B7F0C93B0E0ABE90C9105FD05C0B1E04B
:10136000A1E00C9104600C93B1E0A1E00C91B1E01C
:10137000A1E01C9101FF1B7F01FD14601C93B1E0F3
:10138000A1E00C9102FF19C0B1E0A1E00C910B7F2C
:101390000C93B0E0ABE90C9107FF0FC0B1E0A1E006
:1013A0000C9104600C93B0E0ACE90C91B1E0A9E1C0
:1013B0000C93B1E0AAE100E00C93B1E0A8E001E6F3
:1013C0000C93B1E0A9E000E00C93B1E0A9E10C912D
:1013D000B1E0AAE11C91B1E0A8E02C91B1E0A9E054
:1013E0003C910217130709F405C0B1E0A1E00C918C
:1013F0000B7F0C93B1E0A1E00C9102FF08C0B1E0BB
:10140000A2E000E00C93B1E0A3E000E00C93E1E97E
:10141000F0E00994551B441B60E110F4400F511F8C
:1014200020FD401B20FD510B55954795379527957D
:101430006A9599F70895D12ED32617FF04C0109509
:1014400000950F5F1F4F37FF04C0309520952F5F29
:101450003F4FEE24FF1841E1001F111F4A9539F458
:10146000D7FE04C0109500950F5F1F4F0895EE1C26
:10147000FF1CE21AF30A20F4E20EF31E8894ECCF6C
:041480000894EACF13
:00000001FF
