:020000040000FA
:100000008A110A1208280000000000000000000009
:10001000283084005830A0008001840AA00B0C28EE
:10002000103095002730960000308E0000308F0091
:10003000013090000B309700831686309F008312AA
:10004000003085008316DF30850083120030860083
:100050008316FF3086008312003087008316FC3041
:10006000870083120C1D32280C116400A914A918F2
:100070002915A91C291105183E2829112919071429
:10008000291D0710A9182915A91C2911A911291919
:100090002916291D291285184E282912291E512892
:1000A000A91529192916291D2912051958282912B7
:1000B000291E5B28A915A9192915A91D2911291D72
:1000C00062288516A9182915A91C291185196928DE
:1000D0002911051E6C282911A91229192917291D72
:1000E0002913291F74288512291F7728A916291971
:1000F0002917291D2913291F7F2887108028871475
:10010000291F8328A916A91A2915A91E29118A01B0
:02011000322893
:02400E00723FFF
:00000001FF
