:1000000022C0189518951895189518951895189553
:100010001895189518951895189518951895189578
:100020001895189518951895189518951895189568
:100030001895189518951895189518951895189558
:10004000189518951895B0E0AEE504E00C93B0E073
:10005000ADE50FEF0C93B5E0A0E000E020E034E068
:10006000A150B0400C93215030402223C9F73323D4
:10007000B9F7B0E0AAE304E00C93B0E0ABE300E032
:100080000C93B0E0A7E300E00C93B0E0A8E301E03C
:100090000C93B0E0A4E300E00C93B0E0A5E300E033
:1000A0000C93B0E0A1E300E40C93B0E0A2E300E025
:1000B0000C93B0E0A6E200E00C93B0E0A7E200E011
:1000C0000C93B0E0AFE400E00C93B0E0AEE40AE0E3
:1000D0000C93B0E0ABE404EF0C93B0E0AAE402E2CE
:1000E0000C93B0E0A9E500E40C93B0E0A8E50C9116
:1000F00006FFFBCFB0E0A8E50C9100640C93A89537
:10010000B1E0A1E00C9102600C93B1E0A1E00C9190
:10011000B1E0A1E01C9101FF1B7F01FD14601C9365
:10012000B1E0A1E00C91077F0C93B1E0A1E00C914C
:10013000B1E0A1E01C9102FF1F7E02FD10611C9343
:10014000B0E0A6E30C9100FD05C0B1E0A1E00C9188
:100150000F7E0C93B1E0A1E00C9104FF08C0B1E068
:10016000A2E00BE20C93B1E0A3E005E00C93B1E058
:10017000A1E00C9104FF05C0B1E0A1E00C91086082
:100180000C93B1E0A1E00C91B1E0A1E01C9102FF61
:100190001F7E02FD10611C93B0E0A6E30C9100FFEE
:1001A00005C0B1E0A1E00C910F7E0C93B1E0A1E09D
:1001B0000C9104FF08C0B1E0A2E004EF0C93B1E0A1
:1001C000A3E00FEF0C93B1E0A1E00C9104FF05C098
:1001D000B1E0A1E00C9108600C93B1E0A1E00C91BA
:1001E000B1E0A1E01C9103FF1B7F03FD14601C9391
:1001F000B1E0A1E00C91B1E0A1E01C9101FF1B7FF7
:1002000001FD14601C93B1E0A1E00C910F7D0C93F3
:10021000B1E0A1E00C91B1E0A1E01C9102FF1F7BD5
:1002200002FD10641C93B1E0A1E00C9106FF1CC01C
:10023000B1E0A4E008EE0C93B1E0A5E003E00C937C
:10024000B1E0A2E02C91B1E0A3E03C91B1E0A4E0E8
:100250000C91B1E0A5E01C91200F311FB1E0A6E0A8
:100260002C93B1E0A7E03C93B1E0A1E00C9106FF34
:1002700005C0B1E0A1E00C9100620C93B1E0A1E0F7
:100280000C91B1E0A1E01C9102FF1F7B02FD106404
:100290001C93B1E0A1E00C9106FF1CC0B1E0A4E00A
:1002A00005E00C93B1E0A5E000E00C93B1E0A2E022
:1002B0002C91B1E0A3E03C91B1E0A4E00C91B1E05D
:1002C000A5E01C91201B310BB1E0A8E02C93B1E01C
:1002D000A9E03C93B1E0A1E00C9106FF05C0B1E0BC
:1002E000A1E00C9100620C93B1E0A1E00C91B1E0AF
:1002F000A1E01C9102FF1F7B02FD10641C93B1E082
:10030000A1E00C9106FF1DC0B1E0A4E003E00C9356
:10031000B1E0A5E000E00C93B1E0A2E02C91B1E0E7
:10032000A3E03C91B1E0A4E00C91B1E0A5E01C9108
:10033000ECEEF3E00995B1E0AAE02C93B1E0ABE07C
:100340003C93B1E0A1E00C9106FF05C0B1E0A1E053
:100350000C9100620C93B1E0A1E00C91B1E0A1E03E
:100360001C9102FF1F7B02FD10641C93B1E0A1E011
:100370000C9106FF1DC0B1E0A4E003E00C93B1E0D6
:10038000A5E000E00C93B1E0A4E02C91B1E0A5E081
:100390003C91B1E0AAE00C91B1E0ABE01C91EDEF33
:1003A000F3E00995B1E0ACE00C93B1E0ADE01C9353
:1003B000B1E0A1E00C9106FF05C0B1E0A1E00C9115
:1003C00000620C93B1E0A1E00C91B1E0A1E01C91BE
:1003D00005FF1B7F05FD14601C93B1E0A1E00C91AB
:1003E000B1E0A1E01C9101FF1B7F01FD14601C9393
:1003F000B1E0A1E00C910F770C93B1E0A1E00C917A
:10040000B1E0AEE01C9102FF1E7F02FD11601C9363
:10041000B1E0A4E00BE20C93B1E0A5E005E00C93A1
:10042000B1E0A2E00C91B1E0A3E01C91B1E0A4E046
:100430002C91B1E0A5E03C910217130709F405C027
:10044000B1E0AEE00C910E7F0C93B1E0AEE00C9108
:1004500000FF05C0B1E0A1E00C9100680C93B1E091
:10046000A1E00C91B1E0AEE01C9102FF1E7F02FD05
:1004700011601C93B1E0AEE00C9100FF05C0B1E04B
:10048000A1E00C9100680C93B1E0A1E00C91B1E007
:10049000A1E01C9107FF1B7F07FD14601C93B1E0D6
:1004A000AEE00C910D7F0C93B1E0A1E00C91B1E0B6
:1004B000AEE01C9102FF1B7F02FD14601C93B1E0B3
:1004C000A4E000E00C93B1E0A5E000E00C93B1E003
:1004D000A4E00C91B1E0A5E01C91B1E0A6E02C9164
:1004E000B1E0A7E03C91201731070CF405C0B1E062
:1004F000AEE00C910B7F0C93B1E0AEE00C9102FFEB
:1005000005C0B1E0AEE00C9102600C93B1E0A1E057
:100510000C91B1E0AEE01C9102FF1B7F02FD146064
:100520001C93B1E0A4E006E20C93B1E0A5E005E085
:100530000C93B1E0A8E00C91B1E0A9E01C91B1E00E
:10054000A4E02C91B1E0A5E03C91201731072CF4F8
:10055000B1E0AEE00C910B7F0C93B1E0AEE00C91FA
:1005600002FF05C0B1E0AEE00C9102600C93B1E077
:10057000A1E00C91B1E0AEE01C9102FF1B7F02FDF7
:1005800014601C93B1E0AEE00C9102FF05C0B1E035
:10059000AEE00C9102600C93B1E0AEE00C91B1E0E2
:1005A000A1E01C9101FF1B7F01FD14601C93B1E0D1
:1005B000AEE00C91077F0C93B1E0A1E00C91B1E0AB
:1005C000AEE01C9102FF1F7E02FD10611C93B1E0A2
:1005D000A4E000E20C93B1E0A5E00EE40C93B1E0DE
:1005E000A6E00C91B1E0A7E01C91B1E0A4E02C9151
:1005F000B1E0A5E03C91201731070CF405C0B1E053
:10060000AEE00C910F7E0C93B1E0AEE00C9104FFD4
:1006100005C0B1E0AEE00C9108600C93B1E0A1E040
:100620000C91B1E0AEE01C9102FF1F7E02FD106153
:100630001C93B1E0A4E001E80C93B1E0A5E00FE069
:100640000C93B1E0A4E00C91B1E0A5E01C91B1E005
:10065000AAE02C91B1E0ABE03C91201731072CF4DB
:10066000B1E0AEE00C910F7E0C93B1E0AEE00C91E6
:1006700004FF05C0B1E0AEE00C9108600C93B1E05E
:10068000A1E00C91B1E0AEE01C9102FF1F7E02FDE3
:1006900010611C93B1E0AEE00C910F7E0C93B1E0C1
:1006A000AEE00C9104FF05C0B1E0AEE00C91086033
:1006B0000C93B1E0AEE00C91B1E0A1E01C9103FF1E
:1006C0001B7F03FD14601C93B1E0A1E00C91B0E02E
:1006D000ABE31C9102FF1B7F02FD14601C93B1E091
:1006E000A1E00C91B1E0A1E01C9101FF1B7F01FD95
:1006F00014601C93B1E0A4E00CED0C93B1E0A5E014
:100700000FEF0C93B1E0AAE00C91B1E0ABE01C91CB
:10071000B1E0A4E02C91B1E0A5E03C9102171307F1
:1007200029F4B1E0A1E00C910B7F0C93B1E0A4E0BF
:1007300000E00C93B1E0A5E000E00C93B1E0A2E092
:100740000C91B1E0A3E01C91B1E0A4E02C91B1E0E8
:10075000A5E03C91201731070CF405C0B1E0A1E001
:100760000C910B7F0C93B1E0A1E00C9102FF1EC035
:10077000B1E0AFE00C91B1E0A0E11C9123E130E0E9
:100780000217130794F4B1E0AFE00C91B1E0A0E1DF
:100790001C91039509F413951C93B1E0AFE00C9301
:1007A000B1E0A1E00C910B7F0C9308C0B1E0AFE089
:1007B00000E00C93B1E0A0E100E00C93B1E0A1E017
:1007C0000C91B0E0A2E31C9102FF1F7B02FD1064BC
:1007D0001C93E5E7F0E00994551B441B60E110F41D
:1007E000400F511F20FD401B20FD510B5595479593
:1007F000379527956A9599F70895D12ED32617FF37
:1008000004C0109500950F5F1F4F37FF04C030954F
:1008100020952F5F3F4FEE24FF1841E1001F111F6D
:100820004A9539F4D7FE04C0109500950F5F1F4F0D
:100830000895EE1CFF1CE21AF30A20F4E20EF31EE8
:080840008894ECCF0894EACF84
:00000001FF
