:020000040000FA
:100000008A110A1208280000000000000000000009
:10001000283084005830A0008001840AA00B0C28EE
:10002000103095002730960000308E0000308F0091
:10003000013090000B309700831686309F008312AA
:10004000003085008316FD30850083120030860065
:100050008316FF3086008312003087008316FD3040
:10006000870083120C1D32280C116400A914A918F2
:100070002915A91C291105183E282911A91842285B
:10008000A91446282919A914291DA910A918291548
:10009000A91C2911A9194D282911291D64280030EE
:1000A0002B0203195A28A00020092B05A006A01B2B
:1000B0005F28632831302A02031C5F286328AA0FB7
:1000C0006228AB0A291168280030AA000030AB0072
:1000D000291A6E283130AC000030AD0029162919DC
:1000E000862800302D0203197C28A00020092D0548
:1000F000A006A01B8128852831302C02031C8128F2
:100100008528AC0F8428AD0A29158A280030AC0058
:100110000030AD00291D8E28A9118F28A915A91816
:100120002915A91C2911A91996282911291DB228B8
:10013000A91AB2283008AE003108AF003208B0006A
:100140003308B1003408B2003508B3003608B400F3
:100150003708B5003808B6003908B7003A08B800C3
:100160003B08B9002919A916291DA912A918291592
:10017000A91C291129132919A917291DA913A91F78
:10018000D82851309F00831680309F00831206309C
:10019000A100A10BC9281F151F19CC281E08BD00DE
:1001A00083161E088312BC00831686309F008312BC
:1001B000A91FDB2829172919A917291DA913A91F68
:1001C000E5283C08BA003D08BB00A91FE82829170C
:1001D000291B2915291F2911A9182915A91C29111D
:1001E0003E102919BE14291DBE10A919F828BE10E9
:1001F000BE1C14293E191429BF0FFF28C00A003065
:10020000400203190A29A00020094005A006A01BEE
:100210000F29102905303F02031C0F29102914292A
:100220000030BF000030C000BE183E15BE1C3E119D
:10023000BE1C1B293E142919BE14291DBE10BE1C4C
:1002400071290030C1000030C2003F084102031D87
:10025000312940084202031D31290A30C300003011
:10026000C4000130C1000030C2003F084102031D3C
:10027000412940084202031D41294630C300003095
:10028000C4000230C1000030C2003F084102031D1B
:10029000512940084202031D51295030C30000304B
:1002A000C4000330C1000030C2003F084102031DFA
:1002B000612940084202031D61294630C300003015
:1002C000C4000430C1000030C2003F084102031DD9
:1002D000712940084202031D71290A30C300003011
:1002E000C400BE1C74293E142919BE14291DBE1059
:1002F000BE1C9E294308A000A1016430A200A301F6
:1003000001308A00BB2101308A002308A1002208A5
:10031000A0006430A200A30101308A00D221013084
:100320008A0020089B00BE199E29BE1583166330E3
:10033000920083120C309D0004309200BE1CA12953
:100340003E143E1829153E1C2911A9182915A91C6F
:100350002911A918AD29A914B1292919A914291DF0
:10036000A910A9182915A91C291129198514291DB5
:1003700085108A013228A501A4010310A30CA20C48
:100380001030A600031CCA292008A4070318A50AD8
:100390002108A5070310A50CA40CA30CA20CA60B06
:1003A000C229080021082306A700A31FDC29A209EF
:1003B000A309A20A0319A30AA11FE329A009A109FD
:1003C000A00A0319A10AA501A40103101130A60077
:1003D000A00DA10DA6030319012AA40DA50D220845
:1003E000A402031CA5032308A502A51FFF292208B8
:1003F000A4070318A50A2308A5070310E829031476
:10040000E829A71F0800A009A109A00A0319A10A49
:020410000800E2
:02400E00723FFF
:00000001FF
