:020000040000FA
:100000008A110A1208280000000000000000000009
:10001000283084005830A0008001840AA00B0C28EE
:10002000103095002730960000308E0000308F0091
:10003000013090000B309700831686309F008312AA
:10004000003085008316FF30850083120030860063
:100050008316FF3086008312003087008316FD3040
:1000600087008312003088008316FF3088008312D7
:1000700000308900831607308900831283161930F7
:1000800099008312831620309800831290309800D4
:100090000C1D48280C116400A914A9182915A91CC5
:1000A0002911291DD928A91989282912831603176E
:1000B0008C186F2883120313291C722803178D0ACA
:1000C0000313280803178C0083168C130C15553066
:1000D0008D00AA308D008C14831203132910831213
:1000E00003132916291A8928A915031700308D0032
:1000F00083168C130C1483120C080313AA00031725
:1001000001308D0083168C130C1483120C0803131A
:10011000AB002912831603178C18A328831203132C
:10012000291CA62803178D0A0313280803178C001F
:1001300083168C130C1555308D00AA308D008C144D
:10014000831203132910831203132916291AD9289D
:10015000031700308D0083168C130C1483120C08C7
:100160000313AC00031701308D0083168C130C149D
:1001700083120C080313AD002C082A02031DC528A6
:100180002D082B02031DC528D92829142B08A800E7
:10019000031700308D0003132A0803178C00831601
:1001A0008C130C1555308D00AA308D008C148312E1
:1001B0000313A9182915A91C2911291DF62849304E
:1001C0009F00831680309F0083120630A100A10B90
:1001D000E7281F151F19EA281E08AF0083161E08FE
:1001E0008312AE00831686309F008312A91829154A
:1001F000A91C2911A91229192917291D2913051824
:1002000002292913291F0529A91629192917291D8A
:1002100029130030B0000230B1003109A1002F05D0
:10022000A0002F08A104A10931082F0203192129D8
:10023000A105A200220920052104A206A21B26294D
:10024000272930082E02031C262927292913291FB4
:100250002A29A916A91A2915A91E29112919291609
:10026000291D2912A91F35292911291AA917291E63
:10027000A913291D4A290130B0000030B1002A0815
:100280003007AA002010031820142B083107AB00F8
:100290002018AB0AA9182915A91C291132102919EF
:1002A000B214291DB2100A30B0000030B10031097B
:1002B000A1002B05A0002B08A104A10931082B02E5
:1002C00003196B29A105A200220920052104A20619
:1002D000A21B7029712930082A02031C7029712978
:1002E0007229B210B21C78291430B3000030B40067
:1002F000B21C7B2932142919B214291DB2100A30FC
:10030000B0000030B1003109A1002B05A0002B087E
:10031000A104A10931082B0203199729A105A20004
:10032000220920052104A206A21B9C299D29300830
:100330002A02031C9C299D29B210B21CA329323029
:10034000B3000030B400B21CA62932142919B2142B
:10035000291DB210B21CD0293308A000A1017D30A4
:10036000A200A30105308A00812501308A002308FC
:10037000A1002208A0006430A200A30105308A0079
:10038000982501308A0020089B003219D0293215A7
:1003900083167C30920083120C309D000530920051
:1003A000B21CD329321432182915321C2911A9186C
:1003B0002915A91C2911291DF2290030360203191B
:1003C000E829A00020093605A006A01BED29F12987
:1003D00063303502031CED29F129B50FF029B60A67
:1003E0002911F6290030B5000030B6002919291668
:1003F000291D2912B21DFD292911291AB215291EFC
:10040000B211291D092A321A092A0030B70000301A
:10041000B80029193216291D32123708B9003808D8
:10042000BA000030380203191C2AA0002009380540
:10043000A006A01B212A222A10303702031C212AE1
:10044000222A262AFF30B900FF30BA002912291EBD
:100450002B2A2C089900291283169818312A831206
:1004600029168312291E382AFF30B900FF30BA003E
:100470000030AC000030AD002C083902031D482AC2
:100480002D083A02031D482A7330B0000030B10035
:100490000130AC000030AD002C083902031D582A91
:1004A0002D083A02031D582A6130B0000030B10017
:1004B0000230AC000030AD002C083902031D682A60
:1004C0002D083A02031D682A7630B0000030B100D2
:1004D0000330AC000030AD002C083902031D782A2F
:1004E0002D083A02031D782A6530B0000030B100B3
:1004F0000430AC000030AD002C083902031D882AFE
:100500002D083A02031D882A6430B0000030B10083
:100510000530AC000030AD002C083902031D982ACC
:100520002D083A02031D982A2030B0000030B10097
:100530000630AC000030AD002C083902031DA82A9B
:100540002D083A02031DA82A3D30B0000030B1004A
:100550000730AC000030AD002C083902031DB82A6A
:100560002D083A02031DB82A2030B0000030B10037
:100570000830AC000030AD0029122C083902031DF0
:10058000C62A2D083A02031DC62A2916291EF32A57
:100590002A08BB002B08BC002030B0000030B1009E
:1005A00000302B020319DB2AA00020092B05A0062E
:1005B000A01BE02AF32A00302A02031CE02AF32AB7
:1005C0002D30B0000030B1000030AC000030AD0084
:1005D0002A082C02BB002010031820142B082D021F
:1005E000BC00201CBC030930AC000030AD00291257
:1005F0002C083902031D012B2D083A02031D012B83
:100600002916291E542BB2161030AC002730AD002D
:100610003B08A0003C08A1002C08A2002D08A30064
:1006200005308A00982503308A002008B000210890
:10063000B1002C08A0002D08A1003008A20031084C
:10064000A30005308A00812503308A002208AC000F
:100650002308AD002C083B02BB0020100318201417
:100660002D083C02BC00201CBC033030AC00003024
:10067000AD0030082C07B0002010031820143108FA
:100680002D07B1002018B10A2C083002031D532B8E
:100690002D083102031D532BB21E522B2030B00007
:1006A0000030B100542BB2120A30AC000030AD0063
:1006B00029122C083902031D622B2D083A02031D52
:1006C000622B2916291EB42BE830AC000330AD0094
:1006D0003B08A0003C08A1002C08A2002D08A300A4
:1006E00005308A00982503308A002008B0002108D0
:1006F000B1002C08A0002D08A1003008A20031088C
:10070000A30005308A00812503308A002208AC004E
:100710002308AD002C083B02BB0020100318201456
:100720002D083C02BC00201CBC033030AC00003063
:10073000AD0030082C07B000201003182014310839
:100740002D07B1002018B10A2C083002031DB32B6D
:100750002D083102031DB32BB21EB22B2030B00086
:100760000030B100B42BB2120B30AC000030AD0041
:1007700029122C083902031DC22B2D083A02031D31
:10078000C22B2916291E142C6430AC000030AD0099
:100790003B08A0003C08A1002C08A2002D08A300E3
:1007A00005308A00982503308A002008B00021080F
:1007B000B1002C08A0002D08A1003008A2003108CB
:1007C000A30005308A00812503308A002208AC008E
:1007D0002308AD002C083B02BB0020100318201496
:1007E0002D083C02BC00201CBC033030AC000030A3
:1007F000AD0030082C07B000201003182014310879
:100800002D07B1002018B10A2C083002031D132C4B
:100810002D083102031D132CB21E122C2030B00003
:100820000030B100142CB2120C30AC000030AD001E
:1008300029122C083902031D222C2D083A02031D0F
:10084000222C2916291E742C0A30AC000030AD0071
:100850003B08A0003C08A1002C08A2002D08A30022
:1008600005308A00982504308A002008B00021084D
:10087000B1002C08A0002D08A1003008A20031080A
:10088000A30005308A00812504308A002208AC00CC
:100890002308AD002C083B02BB00201003182014D5
:1008A0002D083C02BC00201CBC033030AC000030E2
:1008B000AD0030082C07B0002010031820143108B8
:1008C0002D07B1002018B10A2C083002031D732C2B
:1008D0002D083102031D732CB21E722C2030B00083
:1008E0000030B100742CB2120D30AC000030AD00FD
:1008F00029122C083902031D822C2D083A02031DEF
:10090000822C2916291EC42C0130AC000030AD0009
:100910003B08A0003C08A1002C08A2002D08A30061
:1009200005308A00982504308A002008B00021088C
:10093000B1002C08A0002D08A1003008A200310849
:10094000A30005308A00812504308A002208AC000B
:100950002308AD002C083B02BB0020100318201414
:100960002D083C02BC00201CBC033030AC00003021
:10097000AD0030082C07B0002010031820143108F7
:100980002D07B1002018B10A0E30AC000030AD00C8
:100990002C083902031DD42C2D083A02031DD42C37
:1009A0000D30B0000030B1000F30AC000030AD00B1
:1009B0002C083902031DE42C2D083A02031DE42CF7
:1009C0000A30B0000030B10000303A020319EF2CB9
:1009D000A00020093A05A006A01BF42CF52C00303D
:1009E0003902031CF42CF52C042D2916291EFA2C8F
:1009F00030089900291283169818002D83122916A1
:100A00008312B70F042DB80A2911003038020319D8
:100A1000102DA00020093805A006A01B152D162DAD
:100A200010303702031C152D162D2915A91829156C
:100A3000A91C2911291D202D7830BD000030BE00D1
:100A4000A9182915A91C2911291D3B2D0030400288
:100A50000319312DA00020094005A006A01B362D4A
:100A60003A2DC7303F02031C362D3A2DBF0F392DCA
:100A7000C00A29113F2D0030BF000030C0002919E5
:100A80002916291D2912321F462D2911291A32171C
:100A9000291E3213291D4E2D3D0899002911831658
:100AA0009818542D831229158312A9182915A91CE9
:100AB0002911291D6B2D29118C1E6B2D1A08C100BF
:100AC000C20129159818672D1819672D6B2D1A0862
:100AD0001A08181218166130B0000030B100410831
:100AE0003002031D782D42083102031D782D792D27
:100AF0002911291D7F2D0030AA000030AB008A018A
:100B00004828A501A4010310A30CA20C1030A600D4
:100B1000031C902D2008A4070318A50A2108A50787
:100B20000310A50CA40CA30CA20CA60B882D080086
:100B300021082306A700A31FA22DA209A309A20A28
:100B40000319A30AA11FA92DA009A109A00A03192D
:100B5000A10AA501A40103101130A600A00DA10D4A
:100B6000A6030319C72DA40DA50D2208A402031C7A
:100B7000A5032308A502A51FC52D2208A407031855
:100B8000A50A2308A5070310AE2D0314AE2DA71F39
:0E0B90000800A009A109A00A0319A10A080083
:02400E00723FFF
:00000001FF
