:1000000022C0189518951895189518951895189553
:100010001895189518951895189518951895189578
:100020001895189518951895189518951895189568
:100030001895189518951895189518951895189558
:10004000189518951895B0E0AEE500E10C93B0E076
:10005000ADE50FEF0C93B1E1A0E000E020E030E16E
:10006000A150B0400C93215030402223C9F73323D4
:10007000B9F7B0E0AAE300E20C93B0E0ABE300E034
:100080000C93B0E0A7E300E00C93B0E0A8E300E03D
:100090000C93B0E0A4E300E00C93B0E0A5E300E033
:1000A0000C93B0E0A1E304E00C93B0E0A2E300E025
:1000B0000C93B0E0A2E200E00C93B0E0A3E207E012
:1000C0000C93B0E0A1E600E20C93B0E0A2E600E001
:1000D0000C93B0E0A4E600E00C93B0E0A5E600E0ED
:1000E0000C93B0E0AFE400E00C93B0E0AEE409E0C4
:1000F0000C93B0E0ABE40CE90C93B0E0AAE40EE39F
:100100000C93B0E0A7E500E10C93B0E0A6E50C91FC
:1001100004FFFBCFB0E0A6E50C9100610C93A8951D
:10012000B1E0A1E00C9102600C93B1E0A1E00C9170
:10013000B1E0A1E01C9101FF1B7F01FD14601C9345
:10014000B1E0A1E00C9103FD05C0B1E0A1E00C918C
:100150000B7F0C93B1E0A1E00C9104FD08C0B1E06D
:10016000A2E009E00C93B1E0A3E000E00C93B1E061
:10017000A1E00C9100610C93B1E0A1E00C9102FDB3
:100180001EC0B1E0A2E00C91B1E0A3E01C9129E017
:1001900030E00217130794F4B1E0A2E00C91B1E053
:1001A000A3E01C91039509F413951C93B1E0A2E020
:1001B0000C93B1E0A1E00C9104600C9308C0B1E095
:1001C000A2E000E00C93B1E0A3E000E00C93B1E00A
:1001D000A1E00C9102FF1EC0B1E0A4E00C91B1E0DF
:1001E000A5E01C9129E030E00217130794F4B1E078
:1001F000A4E00C91B1E0A5E01C91039509F41395DE
:100200001C93B1E0A4E00C93B1E0A1E00C910B7F52
:100210000C9308C0B1E0A4E000E00C93B1E0A5E0CD
:1002200000E00C93B1E0A1E00C9102FF06C0B1E048
:10023000A1E00C91077F0C9305C0B1E0A1E00C9107
:1002400008600C93B1E0A1E00C91B1E0A1E01C9139
:1002500001FF1B7F01FD14601C93B1E0A1E00C9134
:1002600003FD05C0B1E0A1E00C910B7F0C93B0E061
:10027000A1E20C9102FD05C0B1E0A1E00C910B7F61
:100280000C93B1E0A1E00C9102FF12C0B1E0A1E03B
:100290000C9105FD0DC0B1E0A6E00C91B1E0A7E026
:1002A0001C91039509F413951C93B1E0A6E00C93FF
:1002B000B1E0A1E00C91B1E0A1E01C9102FF1F7D33
:1002C00002FD10621C93B1E0A6E00C91B1E0A7E042
:1002D0001C9124E130E00217130734F4B1E0A1E0EF
:1002E0000C910B7F0C9305C0B1E0A1E00C91046070
:1002F0000C93B1E0A8E00C91B1E0A9E01C9127EECD
:1003000033E002171307C4F4B1E0A1E00C9102FF3F
:100310000DC0B1E0A8E00C91B1E0A9E01C910395FB
:1003200009F413951C93B1E0A8E00C93B1E0A1E0AF
:100330000C910B7F0C9305C0B1E0A1E00C9104601F
:100340000C93B1E0A1E00C91B0E0A2E61C9102FF99
:100350001F7D02FD10621C93B1E0A1E00C91B1E0A1
:10036000A1E01C9101FF1B7F01FD14601C93B1E013
:10037000A1E00C9103FD05C0B1E0A1E00C910B7F61
:100380000C93B0E0A1E20C9100FD05C0B1E0A1E04A
:100390000C910B7F0C93B1E0A1E00C9102FF21C006
:1003A000B1E0A1E00C9106FD1CC0B1E0AAE001E0C3
:1003B0000C93B1E0ABE000E00C93B1E0A6E02C912F
:1003C000B1E0A7E03C91B1E0AAE00C91B1E0ABE074
:1003D0001C91201B310BB1E0A6E02C93B1E0A7E00B
:1003E0003C93B1E0A1E00C91B1E0A1E01C9102FFCF
:1003F0001F7B02FD10641C93B1E0A6E00C91B1E0FC
:10040000A7E01C912AE030E00217130734F4B1E0B2
:10041000A1E00C910B7F0C9305C0B1E0A1E00C9121
:1004200004600C93B1E0A1E00C91B0E0A2E31C9158
:1004300002FF1B7F02FD14601C93B1E0A1E00C9150
:10044000B1E0A1E01C9101FF1B7F01FD14601C9332
:10045000B0E0A1E20C9101FD05C0B1E0A1E00C917A
:100460000B7F0C93B1E0A1E00C910F770C93B1E0FE
:10047000A1E00C91B1E0ACE01C9102FF1E7F02FDF7
:1004800011601C93B1E0ACE00C91B1E0ACE01C91C8
:1004900000FF1D7F00FD12601C93B1E0ACE00C91E9
:1004A00002FF05C0B1E0ACE00C910E7F0C93B1E00F
:1004B000ACE00C91B1E0ACE01C9101FF1B7F01FDB1
:1004C00014601C93B1E0ACE00C9100FF05C0B1E0FA
:1004D000A1E00C9100680C93B1E0A1E00C91B1E0B7
:1004E000ACE01C9102FF1E7F02FD11601C93B1E085
:1004F000ACE00C91B1E0ACE01C9100FF1D7F00FD71
:1005000012601C93B1E0ACE00C9100FD0BC0B1E0B7
:10051000ACE00C9103FF05C0B1E0ACE00C910160D0
:100520000C9305C0B1E0ACE00C910E7F0C93B1E0F0
:10053000ACE00C91B1E0ACE01C9101FF177F01FD34
:1005400018601C93B1E0ACE00C9100FF05C0B1E075
:10055000A1E00C9100680C93B1E0A1E00C91B1E036
:10056000A1E01C9107FF1B7F07FD14601C93B1E005
:10057000A1E00C9102FF08C0B1E0A8E000E00C93FC
:10058000B1E0A9E000E00C93B1E0A1E00C91B1E092
:10059000A1E01C9101FF1B7F01FD14601C93B1E0E1
:1005A000A1E00C9103FD05C0B1E0A1E00C910B7F2F
:1005B0000C93B1E0A1E00C9102FF26C0B1E0ACE0E9
:1005C0000C9104FD21C0B1E0ADE00C91B1E0AEE0D2
:1005D0001C91039509F413951C93B1E0ADE00C93C5
:1005E000B1E0ADE00C91B1E0AEE01C9128E030E06C
:1005F000021713070CF408C0B1E0ADE000E00C9363
:10060000B1E0AEE000E00C93B1E0A1E00C91B1E00C
:10061000ACE01C9102FF1F7E02FD10611C93B1E053
:10062000A1E00C91B1E0A1E01C9101FF1B7F01FD55
:1006300014601C93B1E0AFE003E00C93B1E0A0E1E3
:1006400000E00C93B1E0ADE00C91B1E0AEE01C91A4
:10065000B1E0AFE02C91B1E0A0E13C9102171307AB
:1006600009F405C0B1E0A1E00C910B7F0C93B1E05F
:10067000A1E00C91B1E0ACE01C9102FF1D7F02FDF6
:1006800012601C93B1E0A1E00C9102FD0BC0B1E03F
:10069000ACE00C9105FF05C0B1E0A1E00C91046055
:1006A0000C9305C0B1E0A1E00C910B7F0C93B1E07D
:1006B000ACE00C91B1E0ACE01C9101FF1F7D01FDAD
:1006C00010621C93B1E0ACE00C9106FD08C0B1E0F3
:1006D000A1E103E10C93B1E0A2E100E00C93B1E0F1
:1006E000ACE00C9100640C93B1E0A1E00C9102FD30
:1006F0001EC0B1E0A1E10C91B1E0A2E11C9123E1A7
:1007000030E00217130794F4B1E0A1E10C91B1E0DD
:10071000A2E11C91039509F413951C93B1E0A1E1AA
:100720000C93B1E0A1E00C9104600C9308C0B1E01F
:10073000A1E100E00C93B1E0A2E100E00C93B1E094
:10074000A1E00C91B0E0ABE31C9102FF1F7D02FD24
:0A07500010621C93E5E8F0E0099444
:00000001FF
